:0400000080315028D3
:100008007E14803120007F08CE0001300B1D00399E
:100018008B1E0039091C31280B11420803191728B7
:100028000130C2021F28330803191F288431AF2466
:1000380080312000B3010130CD004D08C0074008D1
:10004800283A031D4B28C00184314B2480312300FA
:100058009D1C4B281D121D164B2801302000911E97
:1000680000392100911E0039091C402820009112F6
:1000780082318F2280314B2801302000111E003937
:100088002100111E0039091C4B28843166242000E8
:100098004E08FF007E10090080315228FD012030F3
:1000A80084000030850028308431B72480319930AD
:1000B8008400843085005B308600003087000E3075
:1000C8008431BD247E1020008431302C2000D200E1
:1000D800D0018B132808033A031D1129D208031DE8
:1000E8007728A801DA290D1B7D280430CF004F0896
:1000F800D0070E1883280230CF004F08D0070C19FC
:1001080089280130CF004F08D00750083A06031D50
:10011800A4280130CF004F08BD0706303D02031860
:10012800BD01B401B40A3D08613E8600870101089B
:10013800CF004F08BA00A6010130A2070030A33D46
:100148003408013A031D0B29B401BD08031DB62864
:1001580022000E16200052082C0092009501220061
:100168000E11E62820003D08013A031DC32822008D
:100178000E16200052082C0092009501D02820006D
:100188003D08023A031DD72822000E162C009201C2
:10019800200052082C00950022000E152C009B010F
:1001A80022000D120B2920003D08033A031DEB28FD
:1001B8002C00920122000E12200052082C009500FB
:1001C80022000E152C009B0122000D160B29200081
:1001D8003D08043A031DF9282C00920122000E1252
:1001E8002C00950122000E15062920003D08053A2D
:1001F800031D0B292C00920122000E162C009501DC
:1002080022000E110D16200052082C009B00200021
:100218002608323A031DDA29D6292808031918298D
:100228002808043A031D2A292C00920195019B01F4
:1002380022000E160E150D162000A908031DDA2936
:1002480052080319DA29A801A80ADA292808013A64
:10025800031D7B292C00920195019B012000A70812
:10026800031D3E2922000E120E150D162000A701AF
:10027800A70ADA292708013A031D482922000E1681
:100288000E110D16023051292708023A031D56296E
:1002980022000E160E150D1203302000CF004F0855
:1002A800A700DA292708033A031DDA2922000E16C7
:1002B8000E150D162000A7010130CF004F08BE070C
:1002C8003E080A3A031DDA290230CF004F08A80079
:1002D800BE01A601FF30CF004F08AA00FF30CF00B3
:1002E8004F08AB00FF30CF004F08AC00DA292808D0
:1002F800023A031DDA290D1B85290430CF004F0867
:10030800D0070E188B290230CF004F08D0070C19E0
:1003180091290130CF004F08D0072B08CF004F0894
:10032800AC002A08CF004F08AB005008CF004F0898
:10033800AA002A082B06031DDA292B082C06031D00
:10034800DA29FF30CF004F08BD00D1010630510235
:100358000318CB2951085B3E8600870101082A064D
:10036800031DC3295108CF004F08BD005108613E45
:10037800860087010108CF004F08BA00CB29013059
:10038800CF004F08D10706305102031CAE293D08A3
:10039800FF3A0319D6290330CF004F08A800B4014B
:1003A800B40ADA290430CF004F08A8005208CF0059
:1003B8004F08A9008B17080020003008013A031DD8
:1003C800072A4508D3005308D600B5080319F729AA
:1003D8003508013A031DF3295608031DF729350886
:1003E800023A031DFC295608D3005308B500042A15
:1003F8003508033A031D042AD608031D042AB5014B
:100408008431A72481312000B508031D322A310820
:100418000319322A2108D4002008D30002305307D8
:10042800840054080318540A85000008D5005508AC
:10043800C5002108D4002008D300013053078400E8
:1004480054080318540A85000008D5005508C6004A
:10045800043083311C2381312000B1013508013A71
:1004680003193A2A3508023A031D822A310803196A
:10047800622A4530D3005308CF00200884002108A1
:100488008500000883314F238131003A031D4E2A2D
:100498002000622A20002108D4002008D30002305E
:1004A8005307840054080318540A850000080F39BC
:1004B800023E83311C2381312000B1012000320823
:1004C8000319822A4530D3005308CF00200884003E
:1004D8002108850000088331D6238131003A0319A9
:1004E800772AA530782A33302000D3005308C40077
:1004F800013083311C2381312000B2013508033AD1
:10050800031D0800B10803193208031908008431D3
:10051800A7242000080005302000C8004808C200B1
:10052800B301B30A230019082000C8004808CC000A
:100538003B08FF3A031908004C08C8003B08443E32
:100548008600870148088100BB08031DC92A4C089A
:10055800803A031DB22AAF01AF0A122B4C08813A28
:10056800031DC42A81308331F623823177082000A5
:10057800A101A1077608A001A007AE01AE0A122BBF
:10058800FF30C8004808BB00122B2F08013A031D92
:10059800E02A3B08033A031D122BFF30C800480825
:1005A800BB000430833181238231003A0319122BB6
:1005B8002000B001B00A122B2E0803190F2B2108B6
:1005C800C9002008C80002304807840049080318F9
:1005D800490A850000080F39023ECA004A08CB00C4
:1005E8004B08FF3EC800FF3003180030C9003B0825
:1005F80048064904031D122BFF30C8004808BB00F9
:100608004B08833181238231003A0319122B2000D1
:10061800B201B20A122B8431AF24823120003B0888
:10062800FF3A031908000130C8004808BB07080052
:100638002000D100D001D2015108013A0319432BFF
:100648000130D102510852020318372B5208443E98
:10065800860087010108CF004F08D0070130CF007E
:100668004F08D207262B5009CF005208443E860077
:1006780087014F0881000130CF004F08D10751088A
:10068800CF004F08C300BC01BC0A440823009A00ED
:100698002100111608002000D200D101D10A520809
:1006A800023A031D602B3808D0004F0886008701E6
:1006B80050088100B9017F2B5208073A031D662BA9
:1006C8003F086B2B5208083A031D722B4108D000D3
:1006D8004F0886008701500881007F2B5208103A86
:1006E800031D7E2B4F08860087012408C03F25087C
:1006F800C13F7F2BD10151080800F300F201F4013A
:100708007308013A031D8A2B003008000530730274
:10071800031C902B003008000130F30273087402A8
:100728000318A32B7408443E860087010108F000D3
:100738007008F2070130F0007008F407922B740873
:10074800443E860087010109F0007008F100720834
:100758007106031DB12B013008000030080020008D
:100768001C1464309B001C1521000E120E110D1272
:1007780022000E160E150D162C00910194019A01F7
:10078800920195019B0121008E108E118E122C0072
:10079800931796179C17131716171C1723000E107C
:1007A8000C1108002000D200D101D10A5208013AE8
:1007B800031DE72B4F08860087010108D000500869
:1007C800B600B701F42B52080F3A031DF32B4F085C
:1007D80086008701403FE700413FE800F42BD10144
:1007E80051080800FC017C08F600F7017608F000C3
:1007F8007708F1000330F2000030F300843113244D
:100808000030F8008530F90070087807FA007108A0
:10081800793DFB007A08F6007B08F7000800F40130
:10082800F501701C1B2C7208F4077308F53D0130A4
:10083800F235F30D890B1C2C0130F136F00C890BC5
:10084800212C71087004031D152C7508F101F1079E
:100858007408F001F00708008531042584318331DC
:10086800B323843184317B24843184318A248431D4
:10087800412C360880316A2084318131E02184316D
:1008880020003508013A03193D2C00303E2C200089
:100898003508013A031D5D2C0130F0007008B707D8
:1008A80032303702031C612C0330F0007008B500A9
:1008B800612C3508013A031DB9010130F0007008B8
:1008C800A6070800200043083C020318782C3C08BF
:1008D800443E86008701010823009A000130F00099
:1008E80070082000BC07080021001112080023002E
:1008F8008D121E129F151E159C01D0309B002100E1
:10090800911623009E169D171D16080070302100B1
:100918009900951215149510151195118B16C03064
:100928002000CF004F088B04080002340334013440
:1009380005340434063403340134053404340634ED
:100948000234443401342000BB01AF01B001AE01D0
:10095800B101B20108002000BB01AF01B001AE0136
:10096800B101B2010800640080010131890BB82C83
:0E0978000034FE0012001E00FE0BBE2C0034E8
:0A0A000001343234213401340800BF
:020000040001F9
:04000E00E2FFFFFF0F
:00000001FF
