:0200000049288D
:100008007E14803120007F08C40001300B1D0039A8
:100018008B1E0039091C2D280B11380803191728C5
:100028000130B8021D282E0803191D28D7232000E7
:10003800AE010130C3004308B50728303506031D5B
:100048004428B5015A2323009D1C44281D121D165F
:10005800442801302000911E00392100911E0039EA
:10006800091C3A2820009112EF2044280130200072
:10007800111E00392100111E0039091C4428702363
:1000880020004408FF007E1009004A282030840020
:10009800003085001E30E6237E1020007F292000D6
:1000A8002903031D76283B08C9004908CC002F08FE
:1000B800031968282F03031D64284C08031D6828AA
:1000C80002302F06031D6D284C08C9004908AF00EF
:1000D800752803302F06031D75284C08031D752845
:1000E800AF01CF2320002F08031D9F282A080319DA
:1000F8009F282108CA002008C90002304907840047
:100108004A0803184A0A85000008CB004B08BB00C0
:100118002108CA002008C9000130490784004A089C
:1001280003184A0A85000008CB004B08BC000430BD
:100138005F222000AA012F030319A62802302F06E8
:10014800031DE4282A080319C8283B30C9004908B8
:10015800C500200884002108850000089122003A83
:100168000319C82820002108CA002008C900023045
:10017800490784004A0803184A0A850000080F390D
:10018800023E5F222000AA0120002B080319E42860
:100198003B30C9004908C5002008840021088500B3
:1001A8000008EC23003A0319DB28A530DC2833309B
:1001B8002000C9004908BA0001305F222000AB01C5
:1001C80003302F06031D08002A0803192B080319FA
:1001D8000800CF23080005302000BE003E08B80004
:1001E800AE01AE0A230019082000BE003E08C20076
:1001F800310A031908004208BE0031083A3E860059
:1002080087013E0881003108031D342980304206E9
:10021800031D1129A801A80A76294208F322003AE9
:1002280003192E29200042087F39E321770820008E
:10023800A1007608A000C21B2529A701AA01AA0AC5
:100248002C29A701A70A20082104031D7629A70144
:10025800FF303029FF302000BE003E08B10076296B
:100268002803031D482903303106031D7629FF3072
:10027800BE003E08B1000430C222003A03197629B4
:100288002000A901A90A7629270803197529210838
:10029800BF002008BE0002303E0784003F08031854
:1002A8003F0A850000080F39023EC0004008C1001F
:1002B8004108FF3EBE00FF3003180030BF00310880
:1002C8003E063F04031D7629FF30BE003E08B100FC
:1002D8004108C222003A031976292000AB01AB0A73
:1002E8007629D7232000310A031908000130BE00FF
:1002F8003E08B1070800F223C2238523A623200065
:10030800D201D301D401D501D601D701D801D90131
:100318005320272201302000D6070030D73D033074
:100328005702E93003195602031CA0290130D807E7
:100338000030D93DD601D7018C1DA529DA01DA0A8A
:10034800A629DA015A082C060319CA295A03031DDB
:10035800B1295908D3005808D2005A08031DB829F2
:100368005908D5005808D400D601D701D801D901B9
:1003780053085502031DC22952085402031CC929F7
:100388000130D1005108B407CA29B4015A08D10074
:100398005108AC008C1CD329DA01DA0AD429DA0115
:1003A8005A03031DDE292D08031DDE290130D10063
:1003B8005108B7075A08D1005108AD008C29FC0034
:1003C800FD0104307D020318242A7D08F600F70198
:1003D8007608F0007708F1000330F2000030F300EF
:1003E8003F237108850070088400B5308407833086
:1003F800853D00087C06031D1C2A7D08F600F701D0
:100408007608F0007708F1000330F2000030F300BE
:100418003F23B530F8008330F90070087807FA00F8
:100428007108793DFB007A08F6007B08F7000800A0
:100438000130F6007608FD0704307D02031CE92927
:10044800F601F701080020003008031D312A0230A8
:1004580097232000B001B00A08003003031D432A87
:10046800DF23003A03190800222320004608A300CE
:100478004508A2000230CB004B08B000080002304B
:100488003006031D4F2A0030972303302000CB008D
:100498004B08B000080003303006031D0800DF23B6
:1004A800003A03190800222320004608A500450841
:1004B800A400B00108002000C700C601C801470316
:1004C8000319852A0130C702470848020318792A08
:1004D80048083A3E860087010108C5004508C60756
:1004E8000130C5004508C807682A4609C5004808FC
:1004F8003A3E86008701450881000130C50045085D
:10050800C7074708C5004508B900B201B20A3A084A
:1005180023009A002100111608002000C800C70116
:10052800C70A02304806031DA12A4508860087012C
:100538002208C03F2308C13FC02A07304806031DD0
:10054800A72A3308AC2A08304806031DB32A360800
:10055800C60045088600870146088100C02A0F307A
:100568004806031DBF2A4508860087012408C03FA6
:100578002508C13FC02AC70147080800F300F20157
:10058800F4017303031DCA2A003008000530730202
:10059800031CD02A003008000130F30273087402EB
:1005A8000318E32A74083A3E860087010108F00020
:1005B8007008F2070130F0007008F407D22A7408B6
:1005C8003A3E860087010109F0007008F1007208C0
:1005D8007106031DF12A0130080000300800F800F8
:1005E800FA01F9017F30F6007608F80504307A023E
:1005F8000318202B7A08F600F7017608F000770830
:10060800F1000330F2000030F3003F237108850049
:1006180070088400B53084078330853D000878066B
:10062800031D182BF901F90A0130F6007608FA07BC
:1006380004307A02031CFE2A7908080021001C08ED
:1006480003392000C700C8014708C9004808CA0084
:100658000830C935CA0D890B2D2B21001B08200035
:10066800C700C8014708C9074808CA3D4A08C60064
:100678004908C5000800F401F501701C472B7208F1
:10068800F4077308F53D0130F235F30D890B482B5B
:100698000130F136F00C890B4D2B70087104031DE5
:1006A800412B7508F1007408F00008002000B5011E
:1006B8000130F0007008A60732302602031C08003B
:1006C8003408F0007008B3003708F0007008B6006E
:1006D800A601B401B7010800200039083202031846
:1006E800822B32083A3E86008701010823009A00CF
:1006F8000130F00070082000B20708002100111234
:10070800080022009D171D1523001E129F151E1597
:1007180001309C00A0309B002100911623009E16FA
:100728009D171D1608002000C6004608C5000130A8
:10073800C535FF3E031D9C2B4535013E21009D001C
:100748009D14080070302100990095121510951419
:10075800151195118B16C0302000C50045088B0473
:1007680008000234FF3412340734FF3411340834DB
:10077800053411340F34FF341234043421000C14BE
:1007880023000C1421000C1523000C15A0302100A7
:100798009E001D1408002000B101A801A901A701AD
:1007A800AA01AB0108002000B101A801A901A70115
:1007B800AA01AB01080021009D18E42B01300800B4
:1007C80000300800640080010131890BE72B0034F8
:1007D8002000C601C60AC6014608080023008C107E
:0207E800080007
:020000040001F9
:04000E00A4CFFFDF9D
:00000001FF
